:04000000EDEF07F029
:10060000004E00590000010E426E000E3E6E000EBC
:100610003D6E000E416E35C026F036C027F039C061
:1006200028F03AC029F042509DEC06F09EBA120024
:1006300037C0D9FF38C0DAFFDF5063EC08F0425012
:100640000AEC08F001C043F002C044F043C002F0DD
:1006500044C003F0ACEC08F0500E3D5C460E3E5832
:10066000D8B081A60FD035C026F036C027F039C0EB
:1006700028F03AC029F042509DEC06F0000E3E6E84
:10068000000E3D6E4350575C44505858D8A081B678
:100690005ED037C0D9FF38C0DAFFDF5063EC08F016
:1006A00042500AEC08F001C043F002C044F043C0DD
:1006B00002F044C003F0ACEC08F020EE02F0395038
:1006C000D9263A50DA22DE50435CDE504458D8A096
:1006D000A4D0898A8A8A010E35D05B50D8A411D063
:1006E000000E3F6E08D037C0D9FF38C0DAFFDF50A8
:1006F00063EC08F03F2A030E3F60F5D7010E5B6EF6
:1007000007D037C0D9FF38C0DAFFDF5063EC08F0FC
:1007100042500AEC08F001C043F002C044F043C06C
:1007200002F044C003F0ACEC08F020EE02F03950C7
:10073000D9263A50DA22DE50435CDE504458D8B015
:1007400002D0000E416E4150D8A4C7D764D0555096
:10075000435C56504458D8A081A65FD037C0D9FF1B
:1007600038C0DAFFDF5063EC08F042500AEC08F0C2
:1007700001C043F002C044F043C002F044C003F0A3
:10078000ACEC08F020EE02F03950D9263A50DA22CB
:100790004350DE5C4450DE58D8A03FD0898A8A8A14
:1007A000010E35D05B50D8A411D0000E406E08D099
:1007B00037C0D9FF38C0DAFFDF5063EC08F0402AB9
:1007C000030E4060F5D7010E5B6E07D037C0D9FF2E
:1007D00038C0DAFFDF5063EC08F042500AEC08F052
:1007E00001C043F002C044F043C002F044C003F033
:1007F000ACEC08F020EE02F03950D9263A50DA225B
:100800004350DE5C4450DE58D8B002D0000E416E3A
:100810004150D8A4C7D7899A8A9A3D4A3E2A06D71A
:100820001F6E000E1B6E000E1C6E010E1A6E000E67
:100830001F6E0A0E096E200E0A6E000E0B6E220E3F
:100840000C6E000E0D6E240E0E6E000E0F6E1F50FD
:100850000DEC06F0730E241810E1020E2518D8A432
:100860000CD0E70E5C6E1D0E026E000E036E5C5027
:10087000B7EC07F0000E1A6E1200730E245C020E25
:100880002558D8B067D0EA0E5C6E1D0E026E000EC1
:10089000036E5C50B7EC07F0010E1F6E0A0E096E76
:1008A000200E0A6E000E0B6E220E0C6E000E0D6EE8
:1008B000240E0E6E000E0F6E1F500DEC06F0740E1F
:1008C000245C020E2558D8A02BD024508D0F1B6E0F
:1008D0005C061D0E026E000E036E5C50B7EC07F056
:1008E0000A0E096E200E0A6E000E0B6E220E0C6EA2
:1008F000000E0D6E240E0E6E000E0F6E1F500DECCE
:1009000006F0730E245C020E2558D8B009D024508E
:100910000008730F1C6E1C501B5CD8B018D05C2AEA
:100920000A0E096E200E0A6E000E0B6E220E0C6E61
:10093000000E0D6E240E0E6E000E0F6E1F500DEC8D
:1009400006F0730E245C020E2558D8B0B8D7000EFE
:100950001A6E1200740E245C020E2558D8A01200E4
:10096000E40E5C6E1D0E026E000E036E5C50B7EC62
:1009700007F0010E1F6E0A0E096E200E0A6E000EA1
:100980000B6E220E0C6E000E0D6E240E0E6E000EFF
:100990000F6E1F500DEC06F00A0E096E200E0A6E47
:1009A000000E0B6E220E0C6E000E0D6E240E0E6EDF
:1009B000000E0F6E1F500DEC06F0730E245C020E3D
:1009C0002558D8B02BD024500008730F1B6E5C2A1A
:1009D0001D0E026E000E036E5C50B7EC07F00A0E9F
:1009E000096E200E0A6E000E0B6E220E0C6E000EAB
:1009F0000D6E240E0E6E000E0F6E1F500DEC06F0E5
:100A0000740E245C020E2558D8A008D024508D0FF7
:100A10001C6E1C501B5CD8B007D05C06740E245CA6
:100A2000020E2558D8A0B8D7000E1A6E120084EC1A
:100A300008F089880A0E546E000E516E3F0E506EFB
:100A4000000E566E000E556E000E586E000E576E5C
:100A5000000E526E9EAABED0D0EC08F0526EBAD0F4
:100A6000000E536E000E4F6E07D0535022EC08F06C
:100A7000545063EC08F04F2A4F505D5CD8B0F5D766
:100A8000E7D7010E536E000E4F6E07D0535022EC85
:100A900008F0545063EC08F04F2A4F505D5CD8B01A
:100AA000F5D7D6D78B94D0EC08F05C6E470E026E6B
:100AB000000E036E5C50B7EC07F08B84C9D7010EB3
:100AC000536E9EBAC5D7535022EC08F0545063ECD5
:100AD00008F0F7D7000E536E9EBABAD7535022ECE7
:100AE00008F0545063EC08F0F7D7010E536E500E27
:100AF000356E000E366E540E376E000E386E4B0E8D
:100B0000396E000E3A6E03EC03F0A2D7010E536E5D
:100B1000500E266E000E276E4B0E286E000E296EAC
:100B200053509DEC06F04BC002F04CC003F0ACEC0F
:100B300008F04DC002F04EC003F0ACEC08F088D7CE
:100B4000010E536E535010EC04F082D7D0EC08F035
:100B5000546ED0EC08F05E6ED0EC08F05D6ED0EC18
:100B600008F04A6ED0EC08F0496E4950466E456A6E
:100B70004A504524506E000E4620516ED0EC08F0CD
:100B80004A6E590E4A18D8A402D0010E01D0000EA8
:100B90005B6E5ED75450E5EC08F05E50E5EC08F073
:100BA0005D50E5EC08F050C002F051C003F0ACEC31
:100BB00008F05C50E5EC08F05B50D8B404D0030EAC
:100BC000E5EC08F045D7010EE5EC08F041D72BEC39
:100BD00007F03ED75250010AD8B442D7030AD8B41E
:100BE00050D7010AD8B45ED7070AD8B468D7010A2B
:100BF000D8B470D7030AD8B478D7010AD8B486D746
:100C00000F0AD8B49DD7010AD8B4A0D7030AD8B424
:100C1000C1D7010AD8B4DBD71DD7136E0AC0D9FFDC
:100C20000BC0DAFF000EDE6E000EDD6E0CC0D9FFC9
:100C30000DC0DAFF000EDE6E000EDD6E0EC0D9FFB5
:100C40000FC0DAFF000EDE6E000EDD6E010E63ECEB
:100C500008F0000E196E000E186E000E156E000ED4
:100C6000146E000E176E000E166E48D013500AEC6C
:100C700008F001C018F002C019F016501710D8A4DF
:100C800010D00AC0D9FF0BC0DAFF18C0DEFF19C0B0
:100C9000DDFF0CC0D9FF0DC0DAFF18C0DEFF19C0A0
:100CA000DDFF010E63EC08F01850142619501522D0
:100CB0000AC0D9FF0BC0DAFFDE50185CDE501958AD
:100CC000D8B008D00AC0D9FF0BC0DAFF18C0DEFFC9
:100CD00019C0DDFF0CC0D9FF0DC0DAFF1850DE5C73
:100CE0001950DE58D8B008D00CC0D9FF0DC0DAFFBB
:100CF00018C0DEFF19C0DDFF164A172A0950106E12
:100D0000116A1050165C1750800A126E1150800A3A
:100D10001258D8A0ABD714C001F015C002F009C01A
:100D200003F0046A75EC07F00EC0D9FF0FC0DAFFBC
:100D300001C0DEFF02C0DDFF1200326E000E346E15
:100D4000000E336E010E326E0A0E096E2E0E0A6E02
:100D5000000E0B6E300E0C6E000E0D6E330E0E6E0E
:100D6000000E0F6E32500DEC06F055505610D8B4F0
:100D700004D057505810D8A404D0325010EC04F0CE
:100D800011D03350555C34505658D8B006D0575017
:100D9000335C58503458D8A005D0325010EC04F0D1
:100DA000010E326E0A0E096E2E0E0A6E000E0B6ECA
:100DB000300E0C6E000E0D6E330E0E6E000E0F6EAA
:100DC00032500DEC06F05E502A6E2B6A2A1E2B1E46
:100DD0002A4A2B2A33502A24556E34502B20566E23
:100DE00026C0D9FF27C0DAFFDECF2AF0DDCF2BF0F7
:100DF0002A1E2B1E2A4A2B2A55502A2656502B22B1
:100E000028C0D9FF29C0DAFF2AC0DEFF2BC0DDFFD2
:100E10005E503324576E000E3420586E26C0D9FF22
:100E200027C0DAFFDECF2AF0DDCF2BF020EE57F01F
:100E3000DECF2CF0DDCF2DF02A502C262B502D228A
:100E400020EE02F02850D9262950DA222CC0DEFFED
:100E50002DC0DDFF12000B0E0A6EDB0E096E09C0FD
:100E600001F00AC002F0EBEC08F08A8AF2EC08F01C
:100E700008D0320E63EC08F0DFEC08F00009D8A4CB
:100E800006D075EC08F001500210D8A4F2D7F0ECAF
:100E900008F08A9A850E0A6EED0E096E09C001F0FF
:100EA0000AC002F0EBEC08F0F2EC08F075EC08F088
:100EB00001500210D8A4FAD7F0EC08F08A8A850E07
:100EC0000A6EED0E096E09C001F00AC002F0EBECEB
:100ED00008F0F2EC08F075EC08F001500210D8A40C
:100EE000FAD7F0EC08F08A9A1200000E066E04AEF3
:100EF00006D0036C041ED8B0042A010E066E02AEA2
:100F000006D0016C021ED8B0022A010E061A000E8D
:100F1000086E000E076E03500410D8B41CD0010EEA
:100F2000056E04D0D89003360436052A04AEFAD7ED
:100F3000D890073608360350015C04500258D8A0F8
:100F400005D00350015E0450025A0780D890043245
:100F50000332052EEDD70650D8B404D0076C081E16
:100F6000D8B0082A07C001F008C002F01200096ECC
:100F70008B943F0E046E550EE82EFED7042EFCD740
:100F800000F0300E066E000E056E09380F0B086E6D
:100F9000065008260938F00B076E20EE01F00250CB
:100FA000D9260350DA2208C0DFFF02C0D9FF03C0F0
:100FB000DAFF07C0DFFF20EE01F00250D926035010
:100FC000DA22DF50C8EC08F002C0D9FF03C0DAFF14
:100FD000DF50C8EC08F08B841200E80EF66E110E9C
:100FE000F76E000EF86E0900F5CF5CF00900F5CF42
:100FF0005DF00900F5CF5EF00001616B606B00EE03
:1010000055F0070EEE6AE806FDE1000EF86E0001ED
:1010100017EF05F0056E05C003F003460346C25006
:101020000318830B0318C26EC280C282C2B2FED7FD
:10103000C450046E036AC3500324016E000E0420E2
:10104000026E1200066E000E086E000E076E06504D
:101050000AEC08F001C007F002C008F0850EE82E87
:10106000FED700F007C002F008C003F0ACEC08F0B7
:101070001200000E896E000E8A6E040E8B6ECF0E6B
:10108000926ECF0E936E930E946E000E0F013A6F18
:10109000330E396F2F0E386F000E616EF18E120015
:1010A0000B0ED76EDC0ED66ED650D7CF01F0026A8B
:1010B00001C002F0016A0110596E02505A6EF2949A
:1010C000970ED56E1200026E000E036E09D0150E3B
:1010D000016EC60EE82EFED7012EFCD700D0032AE3
:1010E0000350025CD8A01200F2D7D6CF07F0D7CFBA
:1010F00008F00850036E0750056E03C006F005C0E7
:1011000001F006C002F0120039EC08F0B7EC08F06C
:10111000D8EC08F0C0EC08F093EC08F050EC08F0C4
:10112000A1EC08F01200010EC26E080EC16E8D0E09
:10113000C06E000EC36E000EC46EB00E0F01426F83
:101140001200080EB86E900EAB6E240EAC6E820EBE
:10115000AF6E060EB06E120002C004F00350056EB2
:101160000450E5EC08F00550E5EC08F01200700EB4
:10117000D36E040ED26E000E9B6ED2BE1200FDD74F
:10118000000E0F01546F000E556F000E566F1200C7
:10119000016EC69E01C0C9FFC7A0FED7C95012008C
:1011A0009EAAFED7ABA202D0AB98AB88AE5012007D
:1011B000400EC76E200EC66E000EC86E1200F2A45E
:1011C00002D0010E1200000E1200016E9EA8FED782
:1011D00001C0ADFF12000250D76E01C0D6FF120051
:0B11E000D59E1200D58E1200E9641E9F
:020000040020DA
:08000000FFFFFFFFFFFFFFFF00
:020000040030CA
:0E000000FF321F3CFFBF85FF0FC00FE00F4017
:00000001FF
